:020000022000DC
:1060000000000420B5620200DD620200C97F0200C8
:10601000E1620200E3620200E562020000000000AB
:10602000000000000000000000000000E762020025
:10603000E962020000000000EB620200ED62020073
:10604000219F0200EF620200319F0200EF62020016
:10605000EF620200EF62020081980200EF6202002C
:10606000EF620200EF620200EF620200EF620200E4
:10607000EF620200EF620200EF620200EF620200D4
:10608000EF6202008D780200EF620200EF62020010
:106090002D790200EF6202002DE20200EF620200A1
:1060A000EF620200EF620200EF620200EF620200A4
:1060B000EF620200EF62020000000000000000003A
:1060C000EF620200EF620200EF620200EF62020084
:1060D000EF620200EF620200EF62020075AD0200A3
:1060E000EF620200EF620200EF62020000000000B7
:1060F00000000000EF62020000000000EF620200FA
:10610000000000000000000000000000000000008F
:10611000000000000000000000000000000000007F
:10612000000000000000000000000000000000006F
:10613000000000000000000000000000000000005F
:10614000000000000000000000000000000000004F
:10615000000000000000000000000000000000003F
:10616000000000000000000000000000000000002F
:10617000000000000000000000000000000000001F
:10618000000000000000000000000000000000000F
:1061900000000000000000000000000000000000FF
:1061A00000000000000000000000000000000000EF
:1061B00000000000000000000000000000000000DF
:1061C00000000000000000000000000000000000CF
:1061D00000000000000000000000000000000000BF
:1061E00000000000000000000000000000000000AF
:1061F000000000000000000000000000000000009F
:1062000010B5054C237833B9044B13B10448AFF3F0
:1062100000800123237010BDE02D0020000000004D
:10622000000F030008B5034B1BB103490348AFF34C
:10623000008008BD00000000E42D0020000F0300D6
:10624000154B002B08BF134B9D46A3F5803A002148
:106250008B460F461348144A121A08F0D5FB0F4B11
:10626000002B00D098470E4B002B00D09847002001
:10627000002104000D000D48002802D00C48AFF3A7
:10628000008008F081FB2000290005F025FC08F0C3
:1062900067FB00BF000008000000042000000000B1
:1062A00000000000E02D0020B03E002000000000B3
:1062B000000000000649074A074B9B1A03DD043B18
:1062C000C858D050FBDC02F0CDFDFFF7B9FF00004D
:1062D00040100300982A0020E02D0020FEE7FEE792
:1062E000FEE7FEE7FEE7FEE7FEE7FEE7FEE7FEE786
:1062F000704700BF00B583B0044B0093044A4023AD
:1063000000F036F803B05DF804FB00BF156302002F
:10631000002E002002B32DE9F843114B114E8846A0
:10632000144643F0010903270025224608EB050126
:10633000002005F0E5FC03461D444FF47A40E41AC2
:1063400023B9337833B1C847013F06D001233370F6
:10635000002CEAD1BDE8F88370473770BDE8F883B8
:1063600060F60200FC2D0020704700BF05F08EBFD4
:10637000F0B595B0002415460F4608461E4602F0BB
:106380005BFC384623460895082205A91A9D099604
:106390000D950A948DF82C400C9402F0B1FC9DF8F8
:1063A00014308DF81140DDE9061003F00302012AD4
:1063B000CDE9020127D0022A04D0384602F040FC81
:1063C00015B0F0BDBDF81650C3F3C2038DF8103000
:1063D000AD090826082D2C4628BF0824334622463E
:1063E0000EA9384602F08CFC2D1B214608AB02AAF0
:1063F0000EA8264401F038F8002DEBD1384602F003
:106400001FFC15B0F0BDBDF81460059DC6F38316E2
:10641000C3F3C204B2000EA9384608238DF8104019
:10642000C5F3952502F06CFC08AB324628460EA950
:10643000009302AB00F0A2FF384602F001FC15B059
:10644000F0BD00BF08B5FFF791FF0421034800F03D
:1064500005FF034B01225A7108BD00BF281003003D
:10646000982A002038B50C4B0C4800240025002247
:10647000FF21C3E90045C3F81824996083F820245C
:10648000C3F8142402F08AFB044610B9044802F051
:1064900081FC204638BD00BF102F0020740F030080
:1064A00084F60200A9B1124B12495B1ADB081AD01C
:1064B00030B4114C2288824217D0002203E034F815
:1064C000225085420AD001329342F8D1002030BCDC
:1064D0007047084A02EBC0021068704701EBC20225
:1064E000106830BC7047184670470A46F8E700BF8E
:1064F00028100300880F0300E02D0020094B01390C
:1065000003EBC00003290BD8DFE801F00208060402
:106510000220704740797047007970470420704727
:1065200000207047880F03002DE9F04F9F4CD4E9FD
:1065300000239A428BB000F035810023C4F8183450
:10654000BFF34F8FD4E9013503EA0501CA1C04EB00
:10655000820614F8222050071BD52768327802F0F3
:106560000302012A00F00C81022A03D1728802334F
:1065700003EB921303EA0501D4F81804CA1C04EBD8
:10658000820630B99F4240F2098114F82220520756
:10659000E4D404EB81015A1CC96804912A4004EB3D
:1065A000820201F00301D2680592022903F102067A
:1065B00000F00681012900F06C81D4F810543DB13F
:1065C0002B6828469B689847EB681D68002DF7D11B
:1065D000774A784BD4F808809B1ADB0800220DF12B
:1065E0000F0001938DF80F2001F0B0FCD4E90132C7
:1065F000D4F8009013440133A3EB0903012B00F2FC
:1066000096816D4D2F1FA5F108060121284601F046
:10661000CFFD384601F0E4FD304601F0E1FDD4E95C
:10662000013E03EA0E01C81C04EB800214F82000AE
:1066300010F0040000F0A18003F1020C92F800B009
:106640000BF0030BBBF1010FE24600F09180BBF1B0
:10665000020F7DD0CA1C04EB82020028EED104EBAD
:1066600081010133CA68079203EA0E0304EB830336
:1066700002F00302012AD96800F08880022A5DD165
:10668000BDF81E309B0903334FEA114B0AEB930A06
:10669000304601F0B1FD5946002857D02846C4F8CD
:1066A00004A001F085FDD4E90132216813440133CF
:1066B0005B1A012BA9D90A400332052302319DF848
:1066C0000F0044F82230216001F066FC00213A48B6
:1066D00001F04CFD80F3100009F1010303EA080307
:1066E000BDF8042004EB830308EA090808F1030855
:1066F00042EA0042DA6054F82820304B63F39F22CC
:1067000022F47F7323F0030343F0110344F828209D
:1067100024F8283094F820343BB9D4E90030C01A6A
:1067200018BF01200BB0BDE8F08FFFF7FDFE002879
:10673000F3D0FFF7F9FE0028F7D1EEE7304601F07D
:106740005BFD4FF0000B59460028A7D12846A8E76B
:1067500053880CEB93130EEA0301CA1C03F1020CDD
:1067600014F82200E24604EB820200F0040074E711
:106770001388C3F383136344EDE703F1020A6EE762
:1067800032880233C2F383121344F3E6BDF81C309F
:10679000C3F383134FEA114B9A4479E767600BB058
:1067A000BDE8F08F00200BB0BDE8F08F102F002067
:1067B000880F0300B80F03002C33002090F602006E
:1067C000BDF8123060484FEA9319B9F1500FC8462E
:1067D00028BF4FF0500868F38F1308F10801ADF897
:1067E000123002F0DDF9074600283FF4E6AE02F071
:1067F00023FA0023082204A9384602F04DFA25EABC
:10680000060301339B0098457ED9002B00F0918050
:1068100005EA0601A8EB0308DDB2033104EB8101B0
:106820002A46082338465FFA88F802F035FA4246CD
:1068300005F108034549384602F02EFA09F103092B
:1068400006EB9909D4F81834002B6CD1D4F8105405
:1068500065B1EB685A7928463946002A5FD02B6823
:106860001B689847EB681D68002DF2D1384602F08E
:10687000E7F9002307A88DF81C3001F067FBD4F876
:1068800018340BB9C4F804909DF81C0001F084FB87
:1068900043E7BDF810202C48C2F38313062B28BF12
:1068A000062363F3891202339900ADF8102002F039
:1068B00077F9074600283FF480AE02F0BDF90023C7
:1068C000082204A9384602F0E7F9BDF8103013F4A5
:1068D000707F36D04FF0000805EA06014FEA8803C2
:1068E0000331083304EB81010422384602F0D4F965
:1068F000BDF8103008F10108C3F3831306F1010954
:1069000043454E46E8D89DE705EA0601033104EB0E
:10691000810142460823384602F0BEF98EE71D6821
:10692000002D96D1A2E7384602F08AF9F5E64946ED
:10693000C1E65FFA88F208230449384602F0ACF950
:106940007CE7B1467EE700BF740F03001C2F0020D8
:106950002DE9F04F674C87B0002380460DF10B0006
:106960008DF80B300191A56801F0F0FAD4E901230C
:1069700026681A440132921B012A00F2B98004F2FF
:106980001C4704F214490121384601F011FC5A4811
:1069900001F026FC484601F023FCD4E9013E03EA5D
:1069A0000E00C21C04EB820114F8222012F0040233
:1069B00000F09B8003F1020C91F800B00BF0030B88
:1069C000BBF1010FE24600F08B80BBF1020F00F13A
:1069D000030B75D004EB8B01002AEDD104EB800092
:1069E0000133C268039203EA0E0304EB830302F04F
:1069F0000302012AD9685BD0022A56D1BDF80E30B5
:106A00009B0903334FEA114B0AEB930A484601F006
:106A1000F3FB5946002846D03846C4F804A001F0DC
:106A2000C7FBD4E90113226819440131891A0129ED
:106A3000A9D913400333023205219DF80B0044F815
:106A40002310226001F0A8FA00212C4801F08EFBEF
:106A500080F31000731C2B4004EB830300043540CB
:106A6000033540EA1840D86014F8253068F3C503B0
:106A700004F82530019B54F8252063F39F2222F46B
:106A8000717323F0030343F0010344F8252024F835
:106A9000253094F820341BB1FFF746FD0028FBD1C8
:106AA00007B0BDE8F08F3846B9E74FF0000BADE70F
:106AB000BDF80C30C3F383134FEA114B9A44A5E79A
:106AC0004B880CEB93130EEA0300C11C03F1020C7C
:106AD00014F82120E24604EB810102F004027BE776
:106AE0000B88C3F383136344EDE703F1020A75E7F0
:106AF00032469EE7102F0020283300202C33002040
:106B00002DE9F04F6B4C87B0002380460DF10B0050
:106B1000CDE900128DF80B30A56801F017FAD4E921
:106B2000012326681A440132921B022A00F2BF8018
:106B300004F21C4704F214490121384601F038FBE5
:106B40005D4801F04DFB484601F04AFBD4E9013EA7
:106B500003EA0E00C21C04EB820114F8222012F09A
:106B6000040200F0A18003F1020C91F800B00BF0D8
:106B7000030BBBF1010FE24600F09180BBF1020F65
:106B800000F1030B7BD004EB8B01002AEDD104EB69
:106B900080000133C268039203EA0E0304EB83030F
:106BA00002F00302012AD96861D0022A5CD1BDF843
:106BB0000E309B0903334FEA114B0AEB930A484608
:106BC00001F01AFB594600284CD03846C4F804A0FE
:106BD00001F0EEFAD4E90113226819440131891A4F
:106BE0000229A9D913400333033245219DF80B0034
:106BF00044F82310226001F0CFF9B31C2B4004EBC2
:106C00008303019A2D48DA60002101F0AFFA80F386
:106C10001000731C2B4004EB830300043540033544
:106C200040EA1840D86014F8253068F3C50304F82A
:106C30002530009B54F8252063F39F2222F47173C2
:106C400023F0030343F0410344F8252024F82530C2
:106C500094F820341BB1FFF767FC0028FBD107B084
:106C6000BDE8F08F3846B3E74FF0000BA7E7BDF85B
:106C70000C30C3F383134FEA114B9A449FE74B88C0
:106C80000CEB93130EEA0300C11C03F1020C14F881
:106C90002120E24604EB810102F0040275E70B8833
:106CA000C3F383136344EDE703F1020A6FE732464F
:106CB00098E700BF102F0020283300202C3300203D
:106CC0002DE9F04F6F4C89B0002680460DF113007E
:106CD000CDE9011203938DF81360A56801F036F930
:106CE000D4E9012326681A440132921B032A00F2D8
:106CF000C68004F21C4704F214490121384601F011
:106D000057FA614801F06CFA484601F069FAD4E993
:106D1000013E03EA0E00C21C04EB820114F822209B
:106D200012F0040200F0A88003F1020C91F800B008
:106D30000BF0030BBBF1010FE24600F09880BBF1B2
:106D4000020F00F1030B00F0828004EB8B01002A9C
:106D5000ECD104EB80000133C268059203EA0E0314
:106D600004EB830302F00302012AD96867D0022AE8
:106D700062D1BDF816309B0903334FEA114B0AEB81
:106D8000930A484601F038FA5946002852D038464E
:106D9000C4F804A001F00CFAD4E9011322681944E4
:106DA0000131891A0329A8D91340033304328521FC
:106DB0009DF8130044F82310226001F0EDF8B21C96
:106DC0002A40F31C2B4004EB820204EB8303029F56
:106DD000D7600021039A2D48DA6001F0C7F980F3EB
:106DE0001000731C2B4004EB830300043540033573
:106DF00040EA1840D86014F8253068F3C50304F859
:106E00002530019B54F8252063F39F2222F47173EF
:106E100023F0030343F0810344F8252024F82530B0
:106E200094F820341BB1FFF77FFB0028FBD109B099
:106E3000BDE8F08F3846ADE74FF0000BA1E7BDF895
:106E40001430C3F383134FEA114B9A4499E74B88EC
:106E50000CEB93130EEA0300C11C03F1020C14F8AF
:106E60002120E24604EB810102F004026FE70B8867
:106E7000C3F383136344EDE703F1020A69E7324683
:106E800092E700BF102F0020283300202C33002071
:106E90002DE9F04F724C89B0002680460DF11300A9
:106EA000CDE9011203938DF81360A56801F04EF847
:106EB000D4E9012326681A440132921B042A00F205
:106EC000CC8004F21C4704F214490121384601F039
:106ED0006FF9644801F084F9484601F081F9D4E97A
:106EE000013E03EA0E00C21C04EB820114F82220CA
:106EF00012F0040200F0AE8003F1020C91F800B031
:106F00000BF0030BBBF1010FE24600F09E80BBF1DA
:106F1000020F00F1030B00F0888004EB8B01002AC4
:106F2000ECD104EB80000133C268059203EA0E0342
:106F300004EB830302F00302012AD9686DD0022A10
:106F400068D1BDF816309B0903334FEA114B0AEBA9
:106F5000930A484601F050F95946002858D038465F
:106F6000C4F804A001F024F9D4E9011322681944FB
:106F70000131891A0429A8D9134003330532C521E8
:106F80009DF8130044F82310226001F005F8B01CAE
:106F90002840F21C2A4004EB8000331D029FC7608A
:106FA0002B4004EB820204EB8303039FD760002194
:106FB000129A2D48DA6001F0D9F880F31000731CA2
:106FC0002B4004EB830300043540033540EA1840AE
:106FD000D86014F8253068F3C50304F82530019B08
:106FE00054F8252063F39F2222F4717323F00303E6
:106FF00043F0C10344F8252024F8253094F82034C8
:107000001BB1FFF791FA0028FBD109B0BDE8F08F62
:107010003846A7E74FF0000B9BE7BDF81430C3F3E9
:1070200083134FEA114B9A4493E74B880CEB93136D
:107030000EEA0300C11C03F1020C14F82120E24601
:1070400004EB810102F0040269E70B88C3F38313A8
:107050006344EDE703F1020A63E732468CE700BFC1
:10706000102F0020283300202C3300202DE9F04F72
:10707000774C89B0002680460DF11300CDE901124E
:1070800003938DF81360A56800F060FFD4E9012335
:1070900026681A440132921B052A00F2D68004F2B7
:1070A0001C4704F214490121384601F081F869486F
:1070B00001F096F8484601F093F8D4E9013E03EA5E
:1070C0000E00C21C04EB820114F8222012F004020C
:1070D00000F0B88003F1020C91F800B00BF0030B44
:1070E000BBF1010FE24600F0A880BBF1020F00F1F6
:1070F000030B00F0928004EB8B01002AECD104EB2F
:1071000080000133C268059203EA0E0304EB830397
:1071100002F00302012AD96877D0022A72D1BDF8A1
:1071200016309B0903334FEA114B0AEB930A48468A
:1071300001F062F85946002862D03846C4F804A02D
:1071400001F036F8D4E90113226819440131891A93
:107150000529A8D913400333063240F205119DF8E2
:10716000130044F82310F71C226000F015FFB11C37
:1071700029402F40321D731D2B402A4004EB810112
:1071800004EB870704EB820204EB830C0298039B59
:10719000C860FB60129BD3600021139B2E48CCF883
:1071A0000C3000F0E3FF80F31000731C2B4004EB65
:1071B000830300043540033540EA1840D86014F8D2
:1071C000253068F3C50304F82530019B54F82520C9
:1071D00063F39F2222F4717323F0030343F480735B
:1071E00043F0010344F8252024F8253094F8203496
:1071F0001BB1FFF799F90028FBD109B0BDE8F08F6A
:1072000038469DE74FF0000B91E7BDF81430C3F30B
:1072100083134FEA114B9A4489E74B880CEB931385
:107220000EEA0300C11C03F1020C14F82120E2460F
:1072300004EB810102F004025FE70B88C3F38313C0
:107240006344EDE703F1020A59E7324682E700BFE3
:10725000102F0020283300202C330020F0B41B4EC8
:10726000D6F810340746002B2DD0DC682579002194
:10727000A942084617D0234603E0DB681A798A4200
:1072800011D01B68002BF8D1FB681871D6F81034A8
:107290009BB1DA68FB6812681A60D6F81034DB68B4
:1072A0001F60F0BC7047092901F1010301D01946A4
:1072B000DEE74FF0FF30F0BC7047C6F81074FA6894
:1072C0001360F0BC70471846DEE700BF102F0020A7
:1072D00038B5094BD3F81044012583F820544CB13C
:1072E000E3685D71236820465B689847E3681C6823
:1072F000002CF5D138BD00BF102F002030B5C38859
:1073000083B004460D4613BB217A05291DD0637A4C
:10731000A08873B9124B53F821400021FFF7C2F83F
:10732000104903462246284603B0BDE8304000F02D
:10733000DBBFFFF7E3F80C4B0C4953F8202028463D
:1073400000F0D2FF217AA088E4E703B030BD084AFC
:1073500000920849084A284600F0C6FFD4E700BF5B
:107360001CF7020010F70200A8F602000CF702005A
:1073700004F70200ECF60200E4F602002DE9F04307
:1073800085B01D460C9C002381460E46174694F896
:107390000C80237321462846FFF7B0FF062F09D83B
:1073A000DFE807F0042E343B444F1F0049462046D7
:1073B00000F09AFF2B7A052B05D06B7A5BB9274931
:1073C000204600F091FF204600F082FF84F80C80F8
:1073D00005B0BDE8F083224A2249204600F084FF30
:1073E000EDE7D6E90413F2680393B3680291CDE99F
:1073F00000324946D6E90023204600F075FFD9E760
:1074000032684946204600F06FFFD3E74946D6E987
:107410000023204600F068FFCCE7B368009349469C
:10742000D6E90023204600F05FFFC3E7D6E9023229
:10743000019200934946D6E90023204600F054FF0C
:10744000B8E7D6E90321B3680291CDE90032494695
:10745000D6E90023204600F047FFABE7E0F6020044
:1074600004F702000CF70200082900D970472DE943
:10747000F04F1D4683B000241B7B2C7307460E463D
:107480001046294691460193DFF8C8A0DFF8C8806E
:10749000FFF734FF05E03A5D013400F025FF082CCA
:1074A00009D0A64241462846F5D85146013400F09D
:1074B0001BFF082CF5D12249DFF8A0A0214CDFF8F2
:1074C000A080284600F010FF4FF0000B0EE012F8ED
:1074D000081011F0970F08BF2E22214628460BF105
:1074E000010B00F001FFBBF1080F10D05E4505D97C
:1074F00017F80B207E2AEAD92E22EEE751462846BD
:107500000BF1010B00F0F0FEBBF1080FEED199F882
:107510000830052B02D099F809305BB90A49284692
:1075200000F0E2FE284600F0D3FE019B2B7303B06F
:10753000BDE8F08F054A0649284600F0D5FEEDE784
:10754000D8F60200DCF60200E0F6020004F70200C2
:107550000CF70200D4F60200CCF6020018F7020085
:10756000C50D03002DE9F04F424B93F800E089B0C0
:10757000BEF1000F6AD000263F4F34460125B246C7
:1075800005E00AF1010A5FFA8AF4A6455ED93B4B91
:1075900039681E687A6816F83400A0F1200BC0F133
:1075A000200305FA0BFB25FA03F34BEA030305FA64
:1075B00000FC02EA030901EA0C08009358EA090BEF
:1075C00006EBC4030593DCD0009B21EA0C0122EA00
:1075D0000303C7E9001302F043F9294B16F834C03E
:1075E000C2B2D3E900640023CDE90023009AACF1D4
:1075F00020018A400392009ACCF1200322FA03F37F
:10760000039A1A43CCF1200305FA01F125FA03F39A
:107610000B4305FA0CF1039201EA06020692009A66
:10762000234002FA0CF202920793DDE90634DDE909
:107630000212944208BF8B420BD00E4B0AF1010A92
:1076400093F800E05FFA8AF4A645A0D809B0BDE837
:10765000F08F059A5368002BEFD05178A1F101010A
:10766000B1FA81F14909091AB1FA81F14909604673
:107670009847E2E7CC330020003400200834002093
:10768000F83300202DE9F8438046214800F0FCFB48
:10769000D0B9204D0127D5E90023A8F12004C8F175
:1076A000200607FA04F427FA06F607FA08F9344325
:1076B00002EA090003EA0401014307D022EA0902B1
:1076C00023EA0404C5E90024BDE8F883404602F03B
:1076D000C7F8114B1E68A8B9586826EA090620EABF
:1076E0000400D5E900211E600C4E586042EA0902F0
:1076F0000C432A6031686C6005480022BDE8F843FD
:1077000000F06CBB586849EA06062043E9E700BF71
:10771000D433002000340020F8330020D033002080
:10772000042A3BD92DE9F04182B00E4605461446A5
:1077300001F02AFF68B31E491E4A1F4B0D601F4807
:107740001F491C60167000230022741EC0E900232C
:10775000C1E90023E4B21EB305EBC4044FF00008F6
:107760000327184E02E0A5421AD01C46A3782078C1
:107770008DF80530324601A98DF806808DF8047029
:1077800001F00CFFA4F108030028ECD002B0BDE822
:10779000F08101F0ABFE0028CDD0F7E7072070475D
:1077A000094A0A48002100F007FB02B0BDE8F08159
:1077B00008340020CC330020D0330020F8330020E0
:1077C00000340020857602006575020080F7020013
:1077D00070B5084D2B785BB1074E0024336801214A
:1077E00013F8340001F0C2FF2B780134A342F5D81E
:1077F000002070BDCC3300200834002000B585B0D7
:1078000000230390194601AA44F20100CDE9013397
:1078100000F004F805B05DF804FB00BF10B572B6C7
:10782000FFF756FDFEF780FE0028FBD1104B114CF0
:107830001149E41AE408240444F00100FFF788F831
:107840000E4B1B68DB0700D500BE44F002000C495C
:10785000FFF77EF8BFF34F8F0A490B4BCA6802F45B
:10786000E0621343CB60BFF34F8F00BFFDE700BF63
:10787000880F0300B80F030084F70200F0ED00E06A
:1078800090F7020000ED00E00400FA05F8B5204989
:10789000204B0024C1F84041C1F84441C1F848419F
:1078A000C1F84C41C1F80041C1F804411B6833B331
:1078B0001948D1F8045501681A686D1A25F07F45FA
:1078C000AA4227460DD8197CDE69AD1A144419B1B5
:1078D0001F74D3E9052090471EB133461A68AA42A7
:1078E000F1D90E490E4A0B7812789A4208D00D4908
:1078F0000D4A41F823404FF48013C2F80031F8BD1F
:10790000531CDBB2022B08BF00230B70EFE700BF54
:10791000001001402C35002028350020253500209E
:10792000243500201C35002000E100E02DE9F04F57
:10793000B14AB24913780978B14E994285B0356899
:1079400000F089810133DBB2022B08BF0023AD496F
:107950001370AD4AD1F800C052F823200CEB02039B
:1079600023F07F430B60002D00F0C2812B689A4208
:10797000C0F0C08100273846BE4603E00B68934242
:1079800000F26C81EC68C5F800E0D21A1844E9698D
:107990003CB10CEB000323F07F43C5E90134EF61F8
:1079A0002F460D460029E9D1316000254FF0010A2C
:1079B000964B9749DFF86C9243F0010301934FF027
:1079C0000008002F33D0D7E901BE3C46FF698D4B3C
:1079D00090481A68ABEB020323F07F43834200F226
:1079E00001817344236000203268E061C4E9010032
:1079F00001202074002A00F0F3801068984208D318
:107A0000DFE0DEF800C0DC4580F0E08072465B46D7
:107A10006046D2F81CE0A3EB000BBEF1000FF0D1E2
:107A2000C4F800B0C4F81CE0D461002FCBD191F8A9
:107A300001E0087870454AD084460CEB4C0C8B78FA
:107A400001EBCC0C421CD0B283429CF8043008708D
:107A500004BF00200870022BDCF8084025D0032B5F
:107A600019D0012BE6D1237C002BE3D1DCF80CB03C
:107A7000C4F804B0DCF810E0C4F808E0DCF8142026
:107A8000E26099F80020DCF81800A061002A9ED07E
:107A900063609B469BE73368002BCBD000221A74AF
:107AA000DB69002BFBD13360C1E733685BB19C42DB
:107AB00000F0BA809B4602E0944261D09346DBF826
:107AC0001C20002AF8D1002323747045B4D13668F5
:107AD000B8F1000F01D1B5422CD086B3494A4E4BC4
:107AE0001468D3F80475DFF83881366898F80020F8
:107AF0003D1B25F07F450335002A00F0B680AE42DD
:107B00002CBFA4196419444A24F07F44C2F84045AC
:107B1000D2F80435DB1BE41B23F07F4324F07F44C1
:107B20000333A34200F2BA80002389F8003005B085
:107B3000BDE8F08FBAF1000FF6D0002ECED1364D51
:107B4000364A324C4FF400314FF480330127C2F8EB
:107B500080103C43C5F848334FF43C60C5F8083307
:107B60006F60A047274BAF604FF43C601E60A0479A
:107B70002B4B1E70002389F8003005B0BDE8F08F54
:107B80005C4553D0E069D4F800E0CBF81C00002835
:107B90005BD09C46026872440260634518BF4FF098
:107BA00001080023087891F801E023748DE732681A
:107BB00000230120C4E90033A360E36120747AB19B
:107BC00010683460C31A1360E261FAE66044C31AB5
:107BD000CEF80030C4F800B0C4F81CE0D46124E74B
:107BE0003460EEE6A2EB0B0222F07F427245DED259
:107BF000AEEB02032360F6E6243500202535002095
:107C00002C350020283500201C350020A0F702006C
:107C10000C340020FEFF7F000010014000E100E076
:107C20001935002018350020A3462246D3F81CC081
:107C3000C6F800C0BCF1000F45D0D069D2F800E012
:107C4000CBF81C000028A5D1A7E70023087891F8FD
:107C500001E0237439E70027BA46A9E631600D46F2
:107C60009B1A0B604FF0010AA2E62449244A4FF404
:107C70008030C3F844034FF0010AC3F804034FF403
:107C80000030C1F8800142F001020860C3F800A092
:107C90004FF43C60904788F800A030E7184BD2F8CA
:107CA0000415C2F8401543F001034FF43C609847B7
:107CB000124B4FF40032C3F80021002389F8003042
:107CC00005B0BDE8F08FCDE902320E4BDFF83CE0A5
:107CD00001209860019B89F80000CEF800C04FF4A5
:107CE0003C609847D6F800C00749DDE90232A4E7B6
:107CF0002F465AE629460027B2E700BF00E100E020
:107D0000A0F70200001001400C34002028350020AC
:107D10002DE9F8431F4D204E204FDFF898804FF497
:107D200080334FF400324FF001090024C6F8802060
:107D300047EA0907C5F848334FF43C60C5F80833F3
:107D4000C5F80490B847C5F808904FF43C60C8F8EF
:107D50000040B847124A134B13491C601470134B70
:107D6000134A0C700B2114701C8099704FF4801210
:107D7000C023C6F8802186F814333260C5F8084560
:107D800086F81133D5F80435C8F800302046BDE830
:107D9000F88300BF0010014000E100E0A0F70200FE
:107DA000193500202C350020243500200C3400200B
:107DB0002535002028350020074B9B783BB142B188
:107DC00038B10368187C10B959745A61704708209B
:107DD00070470720704700BF0C3400202DE9F047A2
:107DE000264CA37882B0002B3CD000283AD004293E
:107DF0003CD94369002B35D0437C0026012B8146BA
:107E00000DF107000CBF8846B04617468A468DF82C
:107E1000076000F09BF86378A17822789DF807004E
:107E20005D1CEDB2A94208BF3546AA4222D003EB41
:107E3000430304EBC3030121114AC3F808901971ED
:107E4000D2F804256570C3E9032AC3E9058700F069
:107E5000A3F80C4B4FF480123046C3F8002102B057
:107E6000BDE8F087082002B0BDE8F087072002B027
:107E7000BDE8F08700F090F80420F0E70C34002013
:107E80000010014000E100E0F0B51A4CA37883B087
:107E90004BB340B3436933B30026067405460DF176
:107EA00007008DF8076000F051F86378A778217813
:107EB0009DF807005A1CD2B2974208BF3246914241
:107EC00014D003EB430304EBC30302219D6019713B
:107ED000627000F061F8084B4FF480123046C3F82E
:107EE000002103B0F0BD082003B0F0BD00F054F84D
:107EF0000420F6E70C34002000E100E070B54FF0FC
:107F0000805286B0D2F8A830D2F8A42000926FEA4E
:107F100083436FEA93439BB202A80A4A0A4E0D219B
:107F200006F07AFD02AD002404E015F8013B06F8E6
:107F3000013B013402A806F0ABFD8442F5D306B044
:107F400070BD00BFCCF70200083E002070B4EFF314
:107F5000108472B60D4B9A68AAB90D490D4E0125D1
:107F60009D60D1F8805035401D60C1F88060D1F827
:107F700084505D604FF0FF33C1F88430027004B963
:107F800062B670BC704701230370F8E7183E00200A
:107F900000E100E0FC06FFBD094B9A687AB170B9B8
:107FA00010B4EFF3108172B6064A1C6814605C6866
:107FB0005460986001B962B65DF8044B7047704731
:107FC000183E002000E100E01EF0040F1CBFEFF39C
:107FD00009800AE0EFF308800549064A884201D883
:107FE000904202D88D464FF00000034B1847000026
:107FF0000000042000E0032021800200BFF34F8F27
:108000000549064BCA6802F4E0621343CB60BFF334
:108010004F8F00BFFDE700BF00ED00E00400FA0550
:108020002DE9F04782B08146FFF752F9FEF77CFA5E
:108030000028FBD1324F334A334BBF1AFF083F04AD
:1080400047F001079D6AB9F1000F53D0D9F8182005
:108050002E493846FEF754FDD9E90232CDE9003207
:108060002B49D9E900233846FFF700F8D9F81C302E
:108070000093D9E9042327493846FEF709FF224B2C
:10808000DB6A99071ED4DFF8A0A0DFF8A0800024E7
:10809000012606FA04F32B4207D05AF82430414651
:1080A0001A4638460BB1FEF72BFD01341A2CF0D1DD
:1080B0002A0618D42B040AD44846FFF79FFF02B0C3
:1080C000BDE8F08714493846FEF742FCDBE70E4B6B
:1080D00012499A6B3846FEF713FD4846FFF78EFFAC
:1080E00002B0BDE8F087084B0D495A6B3846FEF7E1
:1080F00007FDDFE70B493846FEF72AFCBFE700BF64
:10810000F80F0300880F030000ED00E0D8F702002D
:10811000F0F7020028F8020084F80200F4F80200E8
:10812000D4F8020050F8020010F90200C8F802006A
:1081300001F01F024B09012100EB8300914000F088
:108140001FB800BF01F01F0201234909934000EB53
:108150008100D94300F020B84B0901F01F0150F80D
:108160002300C84000F00100704700BF50E8002F16
:108170000B4640E8003C9CF0000FF7D110467047DA
:1081800050E8003F43EA010240E8002C9CF0000F59
:10819000F6D11046704700BF50E8003F03EA0102E5
:1081A00040E8002C9CF0000FF6D11046704700BF4D
:1081B00050E8003F03EB010240E8002C9CF0000F68
:1081C000F6D11046704700BF50E8003FA3EB010214
:1081D00040E8002C9CF0000FF6D11046704700BF1D
:1081E000012350E8002F42EA030C40E800C191F05F
:1081F000000FF6D160467047002350E800CF0CEA2C
:10820000030240E8002191F0000FF6D1604670476C
:10821000B8B130B4D0E90112521A0468D2B2531E78
:108220002160DBB242B101680A685C1E551C0D601A
:108230001370E3B2FF2BF6D103680020187130BC35
:1082400070470E20704700BFF0B583B0044600258C
:108250000DF107008DF80750FFF778FED4E90031E3
:108260001A688A4210D9511E19602168A3680F68E4
:1082700012F8015C0A79268AE068DB1BDBB29A42BD
:1082800006FB050538BF0B719DF80700FFF784FE5C
:10829000284603B0F0BD00BF30B5054683B00023CB
:1082A0000DF107000C468DF80730FFF74FFE2A68E6
:1082B0001368591C1160E9682A8A641AB4FBF2F445
:1082C0001C709DF80700FFF767FE03B030BD00BFCC
:1082D000826842B110B50446436901680069984755
:1082E0000023A36010BD70470EB400B582B003999F
:1082F00021B104AB01AA019300F0B2F802B05DF81D
:1083000004EB03B0704700BF2DE9F04F8A4683B0FD
:108310009245164605469846DDE90CB1C0F09C80B2
:1083200053460127B3FBF6F39E4207F10107F9D943
:10833000474538BF474611F00103AA68009302D1B0
:10834000BBF1000F68D1012403E008F1FF3806FB00
:1083500004F4B8F1010FF8D8BAFBF4F08642F6D96C
:10836000DFF8F8904FF00D0807E0B442B4FBF6F3E5
:108370001CD3BAFBF3F0AA681C4619F80030296830
:108380000A2B04FB10AA01EB020E02F1010028D017
:10839000A8608EF80030D5E901329A42E5D328462C
:1083A000FFF796FFB4FBF6F3B442E2D2009BABB109
:1083B000BBF1000F12D0BB4510D92024AB682A684E
:1083C000591CA960D454D5E901329A420BF1FF3B04
:1083D0001ED2BBF1000F01D0BB45EFD103B0BDE809
:1083E000F08FA86001F80280D5E90120904204D204
:1083F0002A6802EB000E0130CAE728460193FFF716
:1084000067FFAA682968019B501C01EB020EBFE7B9
:108410002846FFF75DFFDCE78B0717D42024BB4518
:1084200091D92B68511CA9609C54D5E901329A421C
:108430000BF1FF3B05D2BBF1000F84D0BB45F0D15F
:1084400081E72846FFF744FFAA68F4E7B8F1000F78
:108450000CBF30242024E2E7012769E758FE020020
:10846000002900F0E9822DE9F04F054685B09146DC
:108470000C460E78DFF81CA74FF00D0B13E0AB682D
:1084800028680A2E03F1010200EB030100F02681A7
:10849000AA600E70D5E901329A4280F011812678E7
:1084A000002E00F014810134002E00F01081252EE2
:1084B000E5D12146002711F8012B2D2A00F0E58097
:1084C000302A00F0E6802B2A00F0D6802A2A00F01D
:1084D0001181A2F13006F3B2092B03D922E2A3F1F4
:1084E00030060146084606EB860310F8012BA2F180
:1084F0003004092C02EB4303F1D92E2A00F0068147
:108500004FF0000802F0FB03682B01F1010405D1D4
:1085100014F8012B02F0FB03682BF9D0253A532AFB
:10852000BDD801A353F822F0BD8802009F84020049
:108530009F8402009F8402009F8402009F840200A7
:108540009F8402009F8402009F8402009F84020097
:108550009F8402009F8402009F8402009F84020087
:108560009F8402009F8402009F8402009F84020077
:108570009F8402009F8402009F8402009F84020067
:108580009F8402009F8402009F8402009F84020057
:108590009F8402009F8402009F8402009F84020047
:1085A0009F8402009F8402009F8402009F84020037
:1085B0009F8402009F8402009F8402009F84020027
:1085C0009F8402009F8402009F8402009F84020017
:1085D0009F8402009F8402009F8402009F84020007
:1085E0009F8402009F8402009F8402009F840200F7
:1085F0009F840200D58802009F8402009F840200AD
:108600009F8402009F8402009F8402009F840200D6
:108610009F8402009F8402009F8402009F840200C6
:108620009B860200378802009F8402009F8402001C
:108630009F8402009F840200378802009F8402000A
:108640009F8402009F8402009F8402009F84020096
:108650009F840200AF8702009F8402009F84020073
:10866000558702009F840200398702009F84020020
:108670009F840200D588020047F004070C4621467B
:1086800011F8012B2D2A7FF41BAF47F001070C4690
:10869000F5E747F002070C46F1E7D9F800301A1D5C
:1086A000C9F800201E78AB680A2E00F04F822A68B5
:1086B000591CA960D654D5E901329A42FFF4EFAEB5
:1086C0002846FFF705FE2678002E7FF4ECAE2B7BC4
:1086D000002B40F0218105B0BDE8F08FAA6000F8C2
:1086E00003B0D5E901329A4280F00E812968114425
:1086F0000132CDE6D9F800301A1DC9F800206278A1
:108700001E682E2A04F102007FF4FAAE4A78A2F124
:108710003003092B01464FF000083FF6F3AE08EB9B
:10872000880802EB480811F8012FA2F13003092B49
:10873000A8F13008F3D9E5E6D9F800301A1DC9F8D8
:10874000002019680197434600960A222846FFF741
:10875000DBFDA4E6D9F800301A1DC9F80020D3F8D3
:108760000080FB0700F1EB80B8F1000F00F0EC8116
:10877000404606F08DF90746BE4240F25E81002E6B
:1087800000F05B81202102E0BE4200F05681AA6821
:108790002B68501CA8609954D5E90123934206F137
:1087A000FF36F1D32846FFF793FD2021ECE7D9F8F7
:1087B0000020131DC9F80030AB6829681768581CE1
:1087C0003022A860CA54D5E90123934280F0F18099
:1087D0002A68581C7821A860D154D5E90123934216
:1087E00080F0E2800F2F03D93A4612090F2AFCD8F5
:1087F0004FF0805606E00F2E4FEA16137FF64FAE6D
:108800001E46AB68B7FBF6F21AF802802868B8F18A
:108810000A0F06FB127700EB030103F1010267D098
:10882000AA6081F80080D5E901329A42E3D3284654
:10883000FFF74EFDDFE7D9F800301A1DC9F8002018
:10884000196881EAE172A2EBE172092A4FF0010096
:108850000BDDDFF844C300E01A46ACFB02E3632AF9
:1088600000F101004FEAD303F6DC4045034638BF70
:108870004346029307F00203002E57D00029C0F2AE
:108880009D807A0700F19A80002B00F09980B8F162
:10889000000F40F095800029C0F237817A0700F17F
:1088A000478107F00303022B00F0FE80CDE900674B
:1088B00043460A222846FFF727FDF0E5AB682A6801
:1088C000581C2521A860D154D5E901329A42FFF401
:1088D000E6ADF5E6D9F800301A1DC9F80020196890
:1088E00001974346009610222846FFF70DFDD6E576
:1088F000AA6000F803B0D5E901329A4280F0948072
:108900002B68991801328BE72846FFF7E1FCAB682A
:1089100029685A1C1944BBE5284605B0BDE8F04F4C
:10892000FFF7D6BC084600262146E6E52BB1B8F194
:10893000000F00F02881F807ADD40026ABE798F8C7
:108940000020002A00F02381AB684746C8F10101EE
:10895000D5F800E00A2A01EB07080EEB030C03F13F
:10896000010055D0A8608CF80020D5E9012393427E
:1089700043D217F8012F002AEAD146457FF68FAD82
:10898000202702E046453FF48AADAA682B68511CB7
:10899000A9609F54D5E901329A4206F1FF36F1D31E
:1089A0002846FFF795FCEDE72846FFF791FCAB68FA
:1089B00018E72846FFF78CFCAB6809E7013E63E740
:1089C000F8073FF568AF002EB7D0029BB342BFF463
:1089D00062AF2023AA68501CA86028688354D5E998
:1089E0000102824206F1FF3680F0BF80002EA4D043
:1089F000029AB242EED116464DE728460291FFF7A1
:108A000067FC17F8012F002AB7D0AB6802999FE7DF
:108A1000A8600EF803B0D5E90130984260D22B6807
:108A200003EB000C01309DE72846FFF751FCA968D5
:108A30002B684A1C1944F3E6704798F80060002E32
:108A40003FF42DADAB6828680A2E03F1010200EB5C
:108A5000030111D0AA600E70D5E9012393421BD205
:108A600018F8016F002E3FF41AAD28680A2E03F1A2
:108A7000010200EB0301EDD1AA6000F803B0D5E9D3
:108A800001329A4239D2296811440132AA600E702B
:108A9000D5E901239342E3D32846FFF719FC18F8E0
:108AA000016F002ECED1FAE4B8F1000F7FF4FEAED4
:108AB000002E6AD0029BB342BFF4F8AE3023AA68FE
:108AC000501CA86028688354D5E90102824206F14F
:108AD000FF3651D2002E58D0029AB242EFD1E5E6CD
:108AE0002846CDE90221FFF7F3FBAB682A68581C42
:108AF00002EB030CDDE9022134E72846FFF7E8FB2F
:108B0000AB6829685A1C1944A4E7AA68531CAB60D7
:108B10002B682D209854D5E901329A42C1F1000109
:108B2000FFF4BFAE28460391FFF7D2FB0399B8E6E6
:108B3000AA68531CAB602B682B209854D5E90132EE
:108B40009A42FFF4AEAEEDE7474615E62A68591C97
:108B5000A96002F803B0D5E901239342FFF4A7AD61
:108B60002846FFF7B5FBAB68A1E528460391FFF760
:108B7000AFFB2023039939E728460391FFF7A8FBB1
:108B800030230399A6E7464685E600268EE6904602
:108B9000F3E600BF58FE0200CDCCCCCCFFF738BBCB
:108BA0002DE9F041058ACF1C043D2F440646B7FB52
:108BB000F5F7FFF749FB002834D0FFB24FF480737C
:108BC000013F0446C580066083802CD08046002586
:108BD00009E06379AF4203F101036371C8F8000053
:108BE000066080461FD03046FFF72EFB0135002877
:108BF000EFD194F805802768B8F1010316D03D46FF
:108C0000013083422D68FBD1B8F1000F0AD0002655
:108C100001E03C463F68214601362846FFF73CFB11
:108C2000B045F6D800242046BDE8F08121463846FC
:108C3000FFF732FBF6E700BF04300121FFF7B8BAB7
:108C40002DE9F041012104460430FFF7BDFAC0B21E
:108C500008B1BDE8F08194F805802568B8F10103FA
:108C600014D02E46013083423668FBD1B8F1000F94
:108C7000EFD0002701E02C462D6821460137304611
:108C8000FFF70AFBB845F6D8BDE8F0812146284633
:108C9000BDE8F041FFF700BB2DE9F8430546C68863
:108CA0004079144606FB00F2043A04EB030C1F1D46
:108CB000624538BFD41ABE428846B7FBF6F106FBC0
:108CC000117002D801392D68FCD1371AA74228BF8C
:108CD00027469CB14FF000090430E41B28443A4673
:108CE00008EB090105F082FEA642B9442D6837461B
:108CF0004FF0000028BF2746002CEDD1BDE8F883D7
:108D00002DE9F8430546C6884079144606FB00F273
:108D1000043A04EB030C1F1D624538BFD41ABE424F
:108D20008846B7FBF6F006FB107102D801382D68B3
:108D3000FCD1771AA74228BF27469CB14FF0000903
:108D400004312944E41B3A4608EB090005F04EFEC5
:108D5000A642B9442D6837464FF0000128BF274688
:108D6000002CEDD1BDE8F883064A074B10B500246E
:108D700014701C60BFF35F8F0449054800F018F8B9
:108D8000204610BD383500203C35002068FE02002A
:108D90003035002082680023936082681361826806
:108DA00053618268D3608268536082681360704741
:108DB00001600B6843604A68934204BF002343602C
:108DC000704700BF436843B1026891680B44436039
:108DD0005268934204BF00234360704730B41F4978
:108DE000A1F594728B1ADB1003EBD3735B10DD00DB
:108DF00052F83330984202EB050420D2A24218D236
:108E0000ED1005EBD5756D1002EBC50152F835304C
:108E1000984205D310E052F8333098420FD22146E1
:108E20008B1ADB1003EBD3735B108A4202EBC30493
:108E3000F1D30B4830BC704722460C46114698428D
:108E400004D904F108028A42CCD3F2E76068044BEB
:108E500030BC002808BF1846704700BFBCFF0200A6
:108E600080FE020010B44FF080414FF0805200208D
:108E7000C1F80C015E4BC1F81001C1F83805D2F8F9
:108E80000414C3F82015D2F80814C3F82415D2F836
:108E90000C14C3F82815D2F81014C3F82C15D2F806
:108EA0001414C3F83015D2F81814C3F83415D2F8D6
:108EB0001C14C3F84015D2F82014C3F84415D2F896
:108EC0002414C3F84815D2F82814C3F84C15D2F866
:108ED0002C14C3F85015D2F83014C3F85415D2F836
:108EE0003414C3F86015D2F83814C3F86415D2F8F6
:108EF0003C04C3F86805D2F840043E49C3F86C0549
:108F00000968D2F84424C3F87025082924D04FF00A
:108F10008043D3F80024D20744BF6FF00102C3F8A6
:108F20000024354AD2F8883043F47003C2F8883000
:108F3000BFF34F8FBFF36F8F4FF01023D3F8002292
:108F4000002A23DBD3F80432002B1FDB2B4B2C4AE7
:108F50001A605DF8044B70472A4B1B68002BD6D172
:108F600029482A4A2A4C04602A492B4BFB20C2F884
:108F700018050A681B68294822F00F0203F00F0346
:108F800013434FF400720B600260C0E7244A0123D0
:108F9000C2F80435D2F80034002BFBD04FF0102378
:108FA00012211F4AC3F80012D2F80034002BFBD064
:108FB0004FF0102312211A4AC3F80412D2F80034D9
:108FC000002BFBD000231649C2F80435D1F8003439
:108FD000002BFBD0BFF34F8F0749124BCA6802F436
:108FE000E0621343CB60BFF34F8F00BFFDE700BFCC
:108FF00000C000403001001000ED00E0A02A002079
:109000000090D003340100108C56004000F0004066
:1090100048810300E40E00405802001040960240D0
:1090200000E001400400FA05074B1B5C1F2B8ABFC0
:10903000064A4FF0A04203F01F03D2F80405D840BF
:10904000C04300F001007047A80303000003005074
:10905000064B1A5C1F2A86BF02F01F0204494FF01C
:10906000A04101239340C1F80C357047A8030300C9
:1090700000030050064B1A5C1F2A86BF02F01F0235
:1090800004494FF0A04101239340C1F808357047CF
:10909000A80303000003005030B44FF0A043094977
:1090A00040254FF480744FF400704FF48052C3F8A1
:1090B0000855C3F80845C1F80805C3F8082530BCB1
:1090C000704700BF0003005030B44FF0A04309497F
:1090D00040254FF480744FF400704FF48052C3F871
:1090E0000C55C3F80C45C1F80C05C3F80C2530BC71
:1090F000704700BF000300500A4B185C1F288ABF4E
:1091000009494FF0A04100F01F00D1F804350122B9
:10911000824022EA03001340C1F80805C1F80C356B
:10912000704700BFA803030000030050034BD3F8AF
:1091300010056FEA901000F0010070470003005026
:10914000263818BF4FF0FF30704700BF2620704709
:10915000C30706D4830742BF2E4B0C22C3F818273F
:10916000704770B44FF08043D3F84036DA0722D40A
:109170004FF0A0432749032240264FF480754FF457
:109180000074C3F81827C3F82027C1F82427C3F8B0
:109190003027C3F808654FF48052C3F80855C1F86A
:1091A00008458107C3F8082503D51A4B0C22C3F8DC
:1091B000182770BC70474FF01023D3F8043303F026
:1091C0000703072BD4D1144B0122C3F80425D3F88D
:1091D0000024002AFBD04FF010210020D1F80423F6
:1091E0000D4C22F0070242F00402C1F80423C3F838
:1091F0000405D4F80034002BFBD0BFF34F8F074990
:10920000074BCA6802F4E0621343CB60BFF34F8F91
:1092100000BFFDE70003005000E0014000ED00E06A
:109220000400FA0510B568B90E4CA36801226270FB
:109230003BB1D3E900230020A2609847A368002B2C
:10924000F7D110BD0128FCD1064C2369A070002B7A
:10925000F7D0D3E900230120226198472369002B2E
:10926000F7D110BD4035002070B910B5074CA36888
:10927000012262703BB1D3E900230020A26098472D
:10928000A368002BF7D110BD704700BF4035002008
:1092900030B5012883B01DD0B0B1032812D1224CC3
:1092A00000F0D0F800230DF107008DF80730FEF72D
:1092B0004DFEE368013BE360E5686DB39DF8070090
:1092C000FEF76AFE03B030BD184B0122C3F88020C0
:1092D00003B030BD144C00230DF107008DF80730AA
:1092E000FEF734FE237853B1E3689DF8070001339D
:1092F0000122E360A270FEF74FFE03B030BD0C48C0
:109300006360A3602361E36000F090F804F088FFDD
:1093100030B101232370E7E700F0AAF8A570CDE78C
:1093200000F090F8F5E700BF4035002000E100E0D4
:109330002592020036DF70474DDF70474EDF7047E1
:109340004FDF7047012810B50BD0044600F06CFDCC
:10935000034628B10A2C13D00B2C0DD0092C07D0B2
:1093600010BD00F05BFD8047BDE8104000F05CBD23
:109370000220BDE8104018470120BDE81040184702
:109380000020BDE81040184710B5012882B00446FF
:109390001AD0032816D11E4BC021012283F80013D6
:1093A0001A6000F03BFD20B14FF080430422C3F867
:1093B000042300F039FD28B14FF080434FF4607270
:1093C000C3F8042302B010BD00230DF107008DF88F
:1093D0000730FEF7BBFD00F021FD10B12046FFF77E
:1093E000A9FF9DF80700FEF7D7FD00F01DFD00283E
:1093F000E8D00120FFF7A2FF0028E3D10120FFF70A
:109400009BFF0028DED10120FFF79AFFDAE700BFBB
:1094100000E100E050E8002F02EA010340E8003CD0
:109420009CF0000FF6D11046704700BF044A137934
:1094300023B901211060918018467047852070473C
:1094400054350020084B1A68D20704D4C0210122E9
:1094500083F800131A604FF08041044A0123C1F8D9
:1094600018351370704700BF00E100E0243E002073
:10947000044B01221A604FF08042D2F81834DB030B
:10948000FBD470470C00004010B5154B1A6882B031
:1094900062B10021134A19601B68507900934FF0A4
:1094A00080410123009CC1F80833A8B10E4B1A6813
:1094B00082B100221A601B6801934FF080420221A2
:1094C000084B0198C2F808131B68012002B0BDE8E0
:1094D0001040184702B010BD116853718847E5E786
:1094E000000100405435002004010040F0B5224C3A
:1094F00094F86A5083B0002D3AD14FF0FF334FF00B
:10950000FF364FF0FF372946062204F16400C4E914
:109510000033C4E90233C4E90433C4E90633C4E9BF
:109520000833C4E90A332366C4E90C67C4E90E674B
:10953000C4E91067C4E91267C4E91467C4E916678F
:1095400005F062FA0D4A0E4B0E491D60C02082F8EC
:109550000603402010601B68019301984FF0004300
:109560000122284684F86A20C1F8043303B0F0BD14
:10957000082003B0F0BD00BF6035002000E100E02E
:109580007C61004000600040034B93F86A000030AB
:1095900018BF0120704700BF60350020F0B5704B48
:1095A0001C1894F93050002D63DA8E78C6F340060B
:1095B0009646002E57D01D68013500F0C380012467
:1095C000082553F82470013756D004F1010C53F8E4
:1095D0002C7001374FD0A71CAF4242D253F827203E
:1095E000013200F0AD8004F1030CAC4539D253F8E0
:1095F0002C7001373FD004F1040CAC4531D253F844
:109600002C70013737D004F1050CAC4529D253F842
:109610002C7001372FD004F1060CAC4521D253F841
:109620002C70013727D004F1070CAC4519D253F840
:109630002C7001371FD004F1080CAC4511D253F83F
:109640002C70013717D004F1090CAC4509D253F83E
:109650002C7001370FD00A34AC4202D2DC6A0134DC
:109660006CD00420F0BD1D6A013571D009240C2591
:10967000A7E70820F0BD64461F1865B243F824E050
:1096800087F8305016B91C4484F858008A7854077B
:109690001AD4D60741D41F284C7887BF314E00F02A
:1096A0001F0202464FF0A04602F5E072A40046F801
:1096B00022402D4EC40800F0070C375D012202FA4B
:1096C0000CF23A4332558A78097812F002021AD025
:1096D000AB0003F1804303F5C0430202D3F8100549
:1096E00020F44F3020F44070C3F810050904D3F87B
:1096F000100501F4403102F47C520A430243C3F8DE
:1097000010250020F0BD083D2B44104693F8602042
:1097100042EA811183F86010F0BD1F2887BF114A0B
:1097200000F01F0404464FF0A04202EB8402D2F87E
:10973000004724F00204C2F80047BAE70B249BE775
:109740003C4699E70025C3F800E084F830509DE7D7
:10975000082684F830601A623546344693E700BF25
:109760006035002000030050C435002070B4394C2F
:10977000251883B095F93030072B10DD234493F87A
:1097800058309B09032B34D0012B0CBF4FF4003110
:109790004FF440311F284CD84FF0A04339E0DAB2E3
:1097A000072A23D8980000F1804000F5C04003F15B
:1097B00040029200D0F8106592B202F1804202F5A8
:1097C000C04246F00106C0F8106500201060126823
:1097D0000192019A51B195F9302054F822202AB112
:1097E00001221D4902FA03F3C1F8043303B070BC2F
:1097F00070471F2820D9194BD3F8103500F01F00EF
:10980000C34013F0010F14BF4FF440314FF4003147
:10981000124B03EB8000D0F8002722F44032C0F84E
:109820000027D0F800370B43C0F8003703B070BCF6
:10983000704700F01F00EBE74FF0A0421346D2F84C
:109840001025C24012F0010F0CBF4FF400314FF44D
:109850004031DEE76035002000600040000300502A
:109860001F288ABF054B4FF0A04300F01F00D3F81C
:10987000103523FA00F000F001007047000300509B
:109880002DE9F047002388B0CDE90233C84A1668B5
:10989000012E00F047821E46C64B1A68012A00F0CE
:1098A0003382C54B1A68012A00F02082C34B1A6824
:1098B000012A00F00D82C24B1A68012A00F0FA81D9
:1098C000C04B1A68012A00F0E781BF4B1A68012AD1
:1098D00000F0D481BD4B1A68012A08D0BC4B1A682D
:1098E000012A00F02A820EBB08B0BDE8F087B94A11
:1098F000D2F804231706F1D500221A6019680091E6
:10990000603319680098012946F080060ED11A606C
:109910001B6801934FF0A042019BD2F81025AE4B7B
:109920000292D3F81035039346F00046AB4F002463
:109930000125A30003F180432E4203F5C0434FEA03
:1099400045050BD0D3F8100557F82420D3F810158F
:10995000C0F30520C1F3014102B190470134082C46
:10996000E7D1002EC0DA0DF110089C4C9A4F00236D
:10997000C8F80430049394F960304FF0FF304FF092
:10998000FF315D1CCDE906014FF0010600F0F580C6
:109990005FFA83FC2CF0C00008AB4FEAD00903EB60
:1099A000090E0CF007031EF8082C06FA03F312EA5E
:1099B000030521D022184FEA9C1192F9302054F867
:1099C0002220002A00F03481032900F033811F286F
:1099D00000F2E98005464FF0A04C0CEB850C1EF818
:1099E000185CDCF800E71D40CEF3014E40F0CF805C
:1099F000BEF1030F00F0B38194F96130581C32D0EE
:109A0000DBB223F0C00008AA4FEAD00E02EB0E0C26
:109A100003F007011CF8082C06FA01F912EA090FF5
:109A200021D02218990992F9302054F82220002AD6
:109A300000F01081032900F010811F2800F2F4804B
:109A400003464FF0A04E0EEB83031CF818ECD3F83E
:109A500000C71EEA090FCCF3014C40F0D980BCF1DD
:109A6000030F00F08E8194F96230591C32D0DBB2C2
:109A700023F0C00008AA4FEAD00E02EB0E0C03F050
:109A800007011CF8082C06FA01F912EA090F21D087
:109A90002218990992F9302054F82220002A00F067
:109AA000CF80032900F0CF801F2800F2A580034655
:109AB0004FF0A04E0EEB83031CF818ECD3F800C750
:109AC0001EEA090FCCF3014C40F08A80BCF1030F71
:109AD00000F06B8194F963305A1C33D0DBB223F071
:109AE000C00008AA4FEAD00E02EB0E0C03F00702EA
:109AF0001CF8081C06FA02F2114223D004EB0009FC
:109B0000990999F9309054F82990B9F1000F00F0B3
:109B1000AB80032900F0AB801F288BBFBE464FF0FF
:109B2000A04E03F01F0303460EEB83031CF818EC52
:109B3000D3F800C71EEA020FCCF3014C60D1BCF190
:109B4000030F1CD0002D3FF4CFAE4FF0A042029B7C
:109B5000D2F81015D7F810058B4203D1039B83422E
:109B60003FF4C2AEDDE90423CDE9062394F9603069
:109B70005D1CCDE902107FF40BAF00253CE7032903
:109B800000F02981B9F1000FDCD0C847DAE7BEF157
:109B9000020FF2D1032900F039810025002A3FF499
:109BA0002BAF904728E70CF01F05BC4615E700BF18
:109BB0000061004004610040086100400C61004009
:109BC0001061004014610040186100401C610040B9
:109BD0007C610040006000400003005060350020C0
:109BE000BCF1020F7FF476AF032900F00C81002A4C
:109BF0003FF470AF90476DE703F01F03BE4659E78F
:109C0000BCF1020F9ED10329BCD14FF4403CE4E0EB
:109C1000BCF1020F7FF427AF032900F0F180002A86
:109C20003FF421AF90471EE703F01F03BE460AE74B
:109C30000329A2D118F809501D4308F80950C6E6B7
:109C400003297FF447AF18F80EA04AEA090A08F87A
:109C50000EA029E703297FF406AF18F80EA04AEA00
:109C6000090A08F80EA0E8E603297FF46BAF18F89C
:109C70000EA04AEA020A08F80EA04DE7654AD2F89B
:109C8000042352067FF526AE00221A601B6800935B
:109C9000009B46F040061DE65E4AD2F8042391067A
:109CA0007FF513AE00221A601B680093009B46F0FC
:109CB00020060AE6574AD2F80423D0067FF500AE04
:109CC00000221A601B680093009B46F01006F7E51F
:109CD000504AD2F8042314077FF5EDAD00221A6034
:109CE0001B680093009B46F00806E4E5494AD2F859
:109CF000042355077FF5DAAD00221A601B68009334
:109D0000009B46F00406D1E5424AD2F804239707A7
:109D10007FF5C7AD00221A601B680093009B46F0D8
:109D20000206BEE53B49D1F8041311F0010150D001
:109D3000136013680093009BAEE500221A601B6855
:109D400001934FF0A042019BD2F81025324B0292B2
:109D5000D3F810350393002E3FF405AEE4E5032954
:109D60007FF41CAF4FF40035DCF8003723F44033A8
:109D7000CCF80037DCF800372B43CCF8003701254E
:109D80000CE703297FF44BAF4FF4003ED3F800C734
:109D90002CF4403CC3F800C7D3F800C701354EEAA5
:109DA0000C0CEDB2C3F800C739E703297FF41FAFED
:109DB0004FF4003ED3F800C72CF4403CC3F800C772
:109DC000D3F800C701354EEA0C0CEDB2C3F800C75A
:109DD0000DE70E4660E54FF4003CD3F8002722F46F
:109DE0004032C3F80027D3F80027013542EA0C02BD
:109DF000EDB2C3F80027B9F1000F7FF4C6AEA4E6B8
:109E00004FF4403EC2E74FF4403ED3E74FF44035B5
:109E1000AAE700BF0060004000030050014B186833
:109E2000704700BFCC350020014B1868704700BF59
:109E3000D435002010B54FF0804386B0D3F80443EA
:109E4000620705D5D3F8082103F58473002A4ED1A3
:109E5000A30603D52A4B1A68002A3FD1600603D512
:109E6000284B1A68002A2FD1210602D5264B1A68E2
:109E70000ABBE20502D5254B1A6892B9A3050ED597
:109E8000234B1A685AB100221A601A68214B0592B6
:109E9000059A1B68022006B0BDE81040184706B0BE
:109EA00010BD00221A601B4A1B680493012013682E
:109EB000049A9847E2E700201860164A1B6803934B
:109EC0001368039A9847D4E700221A60124A1B6865
:109ED000029301201368029A9847C5E70020186092
:109EE0000D4A1B6801931368019A9847B6E7002250
:109EF0001A600A4A1B6800931368009A9847A7E7FC
:109F000014010040180100401C01004020010040E5
:109F100024010040D4350020D0350020CC3500206D
:109F200008B5FFF787FFBDE80840FFF7ADBA00BFEF
:109F3000014B1B68184700BFD8350020084B094962
:109F40001B68094AA1FB03139B0C916800FB03F0FB
:109F50009368CB1A23F07F438342F9D3704700BF45
:109F6000A02A002083DE1B4310E000E010B5084B60
:109F700008491A68084C82B00023012001938DF82B
:109F8000040001A823700B70904702B010BD00BF01
:109F90000C37002010370020E0350020704700BF4C
:109FA00000B583B00D4B0E4900228DF80420D3F884
:109FB0002025ADF80620D3F8C0040A4A09681368C2
:109FC00000280CBF4FF480704FF00120034301A81C
:109FD0001360884703B05DF804FB00BF00700240C7
:109FE0000C370020E835002010B40B4A0B4C92F8D7
:109FF0009E100B48002303292360037005D0D2F87C
:10A00000903013B15DF8044B70476FF001010548C3
:10A010005DF8044BFFF7FEB9EC3500201C7C0240D4
:10A02000E1350020E435002030B51A4A1A4B11788A
:10A030001A4C186822680D0683B001F00F0314D47F
:10A040001033012505FA03F31A43034222600AD1B3
:10A05000134B8DF8061006221B688DF807508DF8FB
:10A06000042001A8984703B030BD012505FA03F389
:10A070001A4318402260F6D1094B8DF807000622DA
:10A080001B688DF806108DF8042001A8984703B0CE
:10A0900030BD00BF10370020E4350020E835002037
:10A0A0000C37002010B5224BD3F80044C3F800440D
:10A0B00082B0BFF36F8FBFF34F8FBFF36F8FBFF3CC
:10A0C0004F8FE1050BD51B4B1B4A1B68002102205B
:10A0D000019101218DF8040001A811709847A20593
:10A0E0000AD5144B14491A680320002301938DF8F4
:10A0F000040001A80B709047630517D50E4B1A7822
:10A10000A2B10B4C0D48012100221A70C4F80815A9
:10A110000160BFF36F8FBFF34F8F064B0192042294
:10A120008DF804200DEB02001B68984702B010BDAB
:10A13000007002400C370020E035002058700240CB
:10A140002DE9F04FA34BDFF8B4A21B68DAF800202A
:10A15000134087B000F08C8013F0012200F0BA8029
:10A1600092FAA2F2B2FA82FB5FFA8BF40F2C00F2A1
:10A170008280DFF89092250109EB050659F8053039
:10A180007168B28904A89847012101FA0BF104F023
:10A190000803C94364F07F080193002800F0178189
:10A1A0008D4B8C4F8D4D82221A603A68B3680598AA
:10A1B000114003440122B8F1000F3960B3600499E3
:10A1C0002A70019BC0F2C080002B40F08A80A20060
:10A1D00013199B0003F1804303F51C33C3F80017E8
:10A1E000C3F804077E4B1B68082B00F08680B8F18B
:10A1F000000FB4BF042628267A4B7B497B4DDFF83D
:10A2000008821644F6B2B4BF9946894606F18046E4
:10A2100009EB440906F51C36002401272C60BFF326
:10A220006F8FBFF34F8F3760BFF36F8FBFF34F8FC9
:10A230000220FFF783FE2B68002BEFD01E20FFF7D4
:10A240007DFED8F800309A0606D40220FFF776FE8D
:10A25000D8F800309B06F8D50120FFF76FFEB9F85B
:10A26000003003F1804303F51C331B68002BD4D06E
:10A2700007B0BDE8F08FA4F11005EDB25C4A05F01F
:10A280000F04230102EB030815F008024FFA85F9C9
:10A29000019262D104F59472564951F82260544AF1
:10A2A000D8F80410D358B8F80C201F4604A8334639
:10A2B000B8470121049B01FA0BFB6FEA0B0113B1B4
:10A2C000059B9E425ED84646C84600287FF468AF8C
:10A2D000306065E793FAA3F3B3FA83FB5FFA8BF47C
:10A2E00044E7444BC3F8A017C3F8A4073C4B1B68D2
:10A2F000082B4FEA84027FF47AAF3F4B1B68002B98
:10A300003FF475AFB8F1000FB4BF04232823134402
:10A31000DBB203F1804303F51C334FF001021A60F6
:10A32000BFF36F8FBFF34F8F2F4A2E4BA8BF13463B
:10A3300033F8142002F1804202F51C321368002B1E
:10A34000FCD007B0BDE8F08F002B34D0294BA20021
:10A35000C3F8A016C3F8A40644E7264AD2F8C0649E
:10A36000F1039CD5464604A871683568B28900237C
:10A37000A847012101FA0BF1C846C94300287FF420
:10A380000FAFA5E702241D4888F80E40FFF742F8FA
:10A390001B4B8DF80F4006221B688DF80C208DF8A2
:10A3A0000E5003A898470B4ADAF8003012681340A1
:10A3B0007FF4D2AE5CE7A20013199B0003F1804347
:10A3C00003F51C33C3F80016C3F804060AE749F87E
:10A3D0000500E5E6E83500201C7C0240E135002060
:10A3E00030010010D8030300EC03030004710240A5
:10A3F000EC3500200070024034010010E4350020EC
:10A400000C3700207C3600207474024010B5104ACE
:10A41000104C92F88E10104800230329236082B05C
:10A42000037002D0D2F880300BB102B010BD6FF0D3
:10A4300080710A48FEF7EEFF094B062108221B68CF
:10A440008DF80410ADF8062001A8984702B010BDA1
:10A45000EC3500201C7C0240E1350020E435002072
:10A460000C37002010B5154A1548917F154C002374
:10A470000329036082B0237005D013696BB1FFF725
:10A480005FFE02B010BD6FF400310F48FEF7C2FF4F
:10A490002378002BF3D002B010BD6FF400310A48CE
:10A4A000FEF7B8FF094B062101221B688DF8041046
:10A4B000ADF8062001A89847EAE700BFEC35002078
:10A4C0001C7C0240E1350020E43500200C370020E0
:10A4D00010B5154A154892F82E10154C0023032983
:10A4E000036082B0237005D0136A6BB1FFF728FEBA
:10A4F00002B010BD6FF480210E48FEF78BFF237869
:10A50000002BF3D002B010BD6FF480210948FEF794
:10A5100081FF094B062102221B688DF80410ADF85B
:10A52000062001A89847EAE7EC3500201C7C024091
:10A53000E1350020E43500200C37002010B5154A25
:10A54000154892F83E10154C00230329036082B091
:10A55000237005D0136B6BB1FFF7F2FD02B010BD95
:10A560006FF400210E48FEF755FF2378002BF3D03F
:10A5700002B010BD6FF400210948FEF74BFF094BF4
:10A58000062103221B688DF80410ADF8062001A8EF
:10A590009847EAE7EC3500201C7C0240E1350020BA
:10A5A000E43500200C37002010B5164A164892F802
:10A5B0004E10164C00230329036082B0237005D08F
:10A5C000136C6BB1FFF7BCFD02B010BD6FF48011CE
:10A5D0000F48FEF71FFF2378002BF3D002B010BD09
:10A5E0006FF480110A48FEF715FF0A4B042206217A
:10A5F0001B688DF80410ADF806200DEB020098479B
:10A60000E9E700BFEC3500201C7C0240E13500206A
:10A61000E43500200C37002010B5154A154892F893
:10A620005E10154C00230329036082B0237005D00F
:10A63000136D6BB1FFF784FD02B010BD6FF4001114
:10A640000E48FEF7E7FE2378002BF3D002B010BDD2
:10A650006FF400110948FEF7DDFE094B06210522C3
:10A660001B688DF80410ADF8062001A89847EAE7AA
:10A67000EC3500201C7C0240E1350020E435002050
:10A680000C37002010B5154A154892F86E10154C7D
:10A6900000230329036082B0237005D0136E6BB1D1
:10A6A000FFF74EFD02B010BD6FF480010E48FEF7BB
:10A6B000B1FE2378002BF3D002B010BD6FF48001FF
:10A6C0000948FEF7A7FE094A062312688DF80430F0
:10A6D000ADF8063001A89047EBE700BFEC3500204D
:10A6E0001C7C0240E1350020E43500200C370020BE
:10A6F00010B5154A154892F87E10154C0023032911
:10A70000036082B0237005D0136F6BB1FFF718FDA3
:10A7100002B010BD6FF400010E48FEF77BFE2378F7
:10A72000002BF3D002B010BD6FF400010948FEF712
:10A7300071FE094B062107221B688DF80410ADF845
:10A74000062001A89847EAE7EC3500201C7C02406F
:10A75000E1350020E43500200C37002010B5144A04
:10A76000144C92F81E11144800230329236082B070
:10A77000037004D0D2F8103143B102B010BD6FF4B1
:10A7800080710E48FEF746FE02B010BD6FF4807176
:10A790000A48FEF73FFE0A4B062188221B688DF807
:10A7A0000410ADF8062001A8984702B010BD00BF04
:10A7B000EC3500201C7C0240E1350020E43500200F
:10A7C0000C37002010B40B4A0B4C92F8AE100B481B
:10A7D000002303292360037005D0D2F8A03013B101
:10A7E0005DF8044B70476FF0020105485DF8044BBB
:10A7F000FEF710BEEC3500201C7C0240E135002045
:10A80000E435002010B40B4A0B4C92F8BE100B48F4
:10A81000002303292360037005D0D2F8B03013B1B0
:10A820005DF8044B70476FF0040105485DF8044B78
:10A83000FEF7F0BDEC3500201C7C0240E135002025
:10A84000E435002010B40B4A0B4C92F8CE100B48A4
:10A85000002303292360037005D0D2F8C03013B160
:10A860005DF8044B70476FF0080105485DF8044B34
:10A87000FEF7D0BDEC3500201C7C0240E135002005
:10A88000E435002010B40B4A0B4C92F8DE100B4854
:10A89000002303292360037005D0D2F8D03013B110
:10A8A0005DF8044B70476FF0100105485DF8044BEC
:10A8B000FEF7B0BDEC3500201C7C0240E1350020E5
:10A8C000E435002010B40B4A0B4C92F8EE100B4804
:10A8D000002303292360037005D0D2F8E03013B1C0
:10A8E0005DF8044B70476FF0200105485DF8044B9C
:10A8F000FEF790BDEC3500201C7C0240E1350020C5
:10A90000E435002010B40B4A0B4C92F8FE100B48B3
:10A91000002303292360037005D0D2F8F03013B16F
:10A920005DF8044B70476FF0400105485DF8044B3B
:10A93000FEF770BDEC3500201C7C0240E1350020A4
:10A94000E435002010B40B4A0B4C92F80E110B4862
:10A95000002303292360037005D0D2F8003113B11E
:10A960005DF8044B70476FF0800105485DF8044BBB
:10A97000FEF750BDEC3500201C7C0240E135002084
:10A98000E435002010B5234A234C917B2348002353
:10A990000329236082B0037028D01468B4B1204B1F
:10A9A0001B68082B29D0EFF3108172B61D4B0122D2
:10A9B0001A60BFF36F8FBFF34F8F1A60BFF36F8FB3
:10A9C000BFF34F8F81F3108802B010BD6FF4803158
:10A9D0001548FEF71FFD154BADF8064006221B6813
:10A9E0008DF8042001A8984702B010BD6FF48031A3
:10A9F0000D48FEF70FFD02B010BD0D4B1B68002B7C
:10AA0000D1D0084B01221A60BFF36F8FBFF34F8F75
:10AA100002B010BDEC3500201C7C0240E135002066
:10AA2000300100104C700240E43500200C3700204B
:10AA3000340100102DE9F0432F4BD3F86C44C3F8D8
:10AA40006C4483B0BFF36F8FBFF34F8F2B4B1B68EA
:10AA5000082B4BD02A4A136803F0011123F001138D
:10AA600011601C4344B3DFF8A880264DDFF8A490A2
:10AA70000127062694FAA4F2B2FA82F22868D8F8DE
:10AA8000001007FA02F30F2A24EA030401EA030183
:10AA900043EA0003D0B217DC60F07F022B6001A80C
:10AAA00041B98DF804608DF806208DF80710D9F8AB
:10AAB00000309847002CDDD1134B1B780BB9FFF702
:10AAC0003FFB03B0BDE8F083A0F110022B6001A8AA
:10AAD0000029EFD18DF804608DF806208DF80770FD
:10AAE000D9F800309847002CC4D1E5E7074B1B6824
:10AAF000002BB7D1AEE700BF00700240300100105C
:10AB000014370020E8350020E13500203401001022
:10AB1000E43500200C37002070B52B4B1B68082B48
:10AB200082B0044646B224D000250DF107008DF80E
:10AB30000750FDF70BFAAE4224482549254EB4BF15
:10AB40002A46102204F00F042244012303FA02F2E1
:10AB5000036823EA0203036040F2C57303EB440475
:10AB600034600D609DF807000B68FDF715FA02B020
:10AB700070BD194B1B68002BD6D000230DF10700C8
:10AB80008DF80730FDF7E2F9104D002EB4BF00221A
:10AB9000102204F00F0081182B6801228A4023EA5A
:10ABA000020314F008042B6008D100F594700B4BDD
:10ABB00043F82040BFF36F8FBFF34F8F9DF807001E
:10ABC000FDF7EAF902B070BD30010010E835002051
:10ABD0000478024000780240340100100070024006
:10ABE0002DE9F04F5A4CDFF88881DFF870A1236817
:10ABF00098F80090DAF800205649DB439BB219F030
:10AC0000800F83B043EA020309F00F07D1F88054A4
:10AC10001FD107F1100201269640334246D14E4E15
:10AC200001AF05F080056FF001114C4888F8005025
:10AC3000FEF7F0FB236832680521002543F001038D
:10AC4000019538468DF804102360904703B0BDE8A5
:10AC5000F08F4FF0010B0BFA07FB13EA0B0FDED05E
:10AC600000230DF103008DF80330FDF76FF919F0A3
:10AC7000080F10D1B9F1800F5BD03949394A07F27A
:10AC8000DA335B000B6013681168DBB243F0020338
:10AC90000B43136013682368DAF8002062EA0301AB
:10ACA00011EA0B0F24D101AF2B4E1CE000230DF154
:10ACB00003008DF80330FDF749F9DAF800302A492E
:10ACC0003F0136EA030001EB070B2ED12268C85181
:10ACD000F64333403240CAF80030226003231E4E50
:10ACE0008BF80E3001AF9DF80300FDF755F998E79A
:10ACF0001E49194E8DF806903F01C81922EA0B0231
:10AD00004FF0000C41F807C0CAF8002006210322CA
:10AD100001AF43EA0B0382738DF807208DF804100E
:10AD20003268236038469047DDE74846FFF7F4FE77
:10AD3000D4E70B4B0B4A40F2B471196013681168E9
:10AD4000DBB243F004030B4313601368A3E700BFB7
:10AD5000E8350020007002400C370020E435002068
:10AD60000078024004780240EC3500207C36002058
:10AD7000103700202DE9F843694BD3F804C365462A
:10AD8000BCF1000F10D000252F466146012691FA34
:10AD9000A1F3644AB3FA83F39800024406FA03F07D
:10ADA000146834BB8143F2D15F4B604E1B68082BA3
:10ADB0002FD03378002B36D005F4000735F400058A
:10ADC00012D0DFF87C914FF0010895FAA5F4B4FA9F
:10ADD00084F459F8243008FA04F49847A543F4D1D0
:10ADE00033780BB9FFF7ACF9002F40F08E80BDE847
:10ADF000F8831760BFF36F8FBFF34F8F06FA03F32B
:10AE0000994345EA0305C2D1474B484E1B68082BBE
:10AE1000CFD1474B1B68002BCBD005F4000735F48E
:10AE20000005CED1DCE7A80273D5424A424BDFF8D9
:10AE300004E1414F40F2A971116019683D4A11F0D7
:10AE4000FF0118BF1B6840F2AA7018BF19403A4BA7
:10AE500010601A68384812F0FF021CBF1B681A40C5
:10AE6000344B40F2AB741C60036813F0FF031CBF4B
:10AE70000068034040F2AC70CEF800003868014032
:10AE80002E4808D0046840F2A9780C430460CEF83C
:10AE9000008039603968274F274C40F2AD71396026
:10AEA00021680A4009D0016840F2AA7E41EA0241C5
:10AEB0000160C7F800E0226022681E491E4A40F285
:10AEC000AE740C60126813400ED0D90748BF45F429
:10AED00000051849DA06184A40F2AB740C6013609A
:10AEE000136848BF45F00105036833F001121CBF29
:10AEF0000CF080710D4313F0011F8ED01CF4806F95
:10AF00001CBF026045F4806587E7BDE8F843FFF7A2
:10AF100067BE05F4000735F400057FF452AF61E722
:10AF2000007002400071024030010010E135002045
:10AF300034010010007802400478024014370020E9
:10AF4000000403000220FEF7D7B800BF2DE9F0414E
:10AF50000C460546FEF7F4F8B8B9012C17D05CB1E1
:10AF6000022C12D1144B5C787CB1144B1B6863B17A
:10AF70002046BDE8F04118471148FCF785FF0E4A0E
:10AF8000104B94781B78A342EED0BDE8F0810A4EB6
:10AF9000737834782BB90B4BB2781A70002CF4D03C
:10AFA000E3E7094F06483A464FF40041FCF716FF25
:10AFB0000028F0D13D70EEE77C3700208837002074
:10AFC0003C370020903700201837002010B500785B
:10AFD000FEF7B6F840B9054B587828B1044B1B680A
:10AFE00013B1BDE81040184710BD00BF7C370020EA
:10AFF0008837002038B5C14D2B78044663B1C04B6B
:10B000001B780020287023B3FEF734F80120FEF7E8
:10B0100031F80320FEF72EF8172C00F26C81DFE8E0
:10B0200014F0E600FB00FB00A000B300C600D8004F
:10B030004E001B0028001B0028005D006400640017
:10B040006400640064008D00110126013500570082
:10B050005700FEF721F8DFE7012318462B70FEF7B3
:10B060004BF8002240F6CD41A648BDE83840FCF739
:10B07000B5BE012318462B70FEF73EF800224FF4B0
:10B080008041A048BDE83840FCF7A8BE9C4B1B7827
:10B09000002B00F027810020FDF7ECFF0120FDF7D9
:10B0A000E9FF0320FDF7E6FF0020FDF7D1FF0120B7
:10B0B000FDF7CEFF944B15221A70002506E0002004
:10B0C000FDF7C6FF904B07221A700025284638BDB1
:10B0D000FDF7FAFF8C4B00251C70F7E7FDF7F4FF36
:10B0E000894B0C221A700025F0E78848FCF7CCFE4B
:10B0F000D4F11104054600F0E880002840F0E58016
:10B10000012C14D0C82303FB04F44FF4FA704FF45D
:10B1100000430021C3FB04014FF47A72002304F0C2
:10B120000DF92A4601467948FCF758FE05460220EB
:10B13000FDF78EFF724B01221A70C7E7704B1B7828
:10B14000002B00F0D2800020FDF794FF0120FDF7D6
:10B1500091FF0320FDF78EFF6B4B12221A70002522
:10B16000B4E70020FDF760FF002840F0A880FDF75D
:10B170006FFF41F69A11644B624803241C70002251
:10B18000BDE83840FCF72ABE0020FDF74DFF00283F
:10B1900040F08F80FDF75CFF43F233315A4B594842
:10B1A00004241C700022BDE83840FCF717BE0020C4
:10B1B000FDF73AFF002878D1FDF74AFF524B51487E
:10B1C00005241C70002241F69A11BDE83840FCF7B6
:10B1D00005BE0020FDF790FF4B4B4A4806241C702B
:10B1E000002240F6CD41BDE83840FCF7F7BD444BA6
:10B1F0001B78002B73D00020FDF73CFF0120FDF7EA
:10B2000039FF0320FDF736FF3E48FCF73DFE3E4B7D
:10B21000002205461A7059E70020FDF705FF0028B7
:10B2200039D1FDF715FF41F69A1143F23333022C61
:10B2300018BF1946344B33481C700022BDE8384013
:10B24000FCF7CCBD2E4B1B78002B45D00020FDF722
:10B2500011FF0120FDF70EFF0320FDF70BFF00207B
:10B26000FDF7F6FE284B13221A7000252EE7244B1B
:10B270001B78EBB30020FDF7FDFE0120FDF7FAFE81
:10B280000320FDF7F7FE0120FDF7E2FE1E4B14221E
:10B290001A7000251AE70020FDF7ECFE022C4EF292
:10B2A000666118BF4FF40031C4E70020FDF7E2FEED
:10B2B00084E70020FDF7DEFE4FF400316EE700204A
:10B2C000FDF7D8FE46F2666155E70220FDF7D2FE93
:10B2D0000B4B00221A70F9E6FDF7DEFEBFE7FDF723
:10B2E000DBFE91E7FDF7D8FEDEE6FDF7D5FE33E79E
:10B2F000FDF7D2FEC7E70025E8E600BF843700204F
:10B30000193700205C3700208C3700201C370020C4
:10B31000044B1B68DB0700D47047034B1878FFF71A
:10B3200069BE00BF803700208C37002008B10020A4
:10B330007047FDF7FBBE00BF044B1B6813F0010311
:10B3400001D118467047FFF755BE00BF8037002077
:10B3500038B5224B224A19608307106000F00105BE
:10B3600004D4002D35D12C46204638BD1D4B1E4837
:10B370000E241C7040F266620121FCF7D1F90446EC
:10B3800030B1002DF0D00120FDF7E2FE204638BD9F
:10B39000FCF71EFA04460028F3D10146134A14486C
:10B3A000FCF70AFD0446002DDED00120FDF7D0FE9B
:10B3B000002CD9D10F4A10480021FCF7FDFC0446AF
:10B3C0000028D1D10D4A0E480121BDE83840FCF7D4
:10B3D000F3BC0120FDF7BCFEECE700BF883700207E
:10B3E000803700207C3700206C040300CDAF0200C2
:10B3F0007804030011B302007C04030045AF02008F
:10B400007404030038B9012A07D0012913D048B2C7
:10B4100068B1022907D00720704701290AD0012905
:10B420000246F4D107E0064B00205A707047044BE7
:10B430009A7070470E22024B00201A70704700BFAE
:10B440007C37002008B10620704708B5FDF77EFE66
:10B450001F2886BF0A4B00F01F004FF0A04303EBEC
:10B4600080030020D3F8002722F44032C3F80027DD
:10B47000D3F8002742F44032C3F8002708BD00BFCC
:10B480000003005010B50388102B07D0112B04D1F6
:10B49000254B18680138186030B110BD224C216866
:10B4A00011B30131216010BD01220221FFF7AAFF73
:10B4B00040B1072806D01D4B1B68002BEDD0BDE81E
:10B4C00010401847072202210120FFF79BFF08B117
:10B4D0000728F0D1002108460A22FFF793FF002831
:10B4E000DBD00728E7D1D8E701220846FFF78AFF1B
:10B4F00038B1072805D00D4B1B6803B19847216868
:10B50000CFE7072202210120FFF77CFF08B10728BF
:10B51000F1D1042202210020FFF774FF0028EED0B1
:10B520000728E8D1EBE700BF9837002094370020C8
:10B5300008B50020FFF786FF10B1062800D008BD2F
:10B540000120FFF77FFF0028F9D0062808BF002060
:10B5500008BD00BF184B10B5186031B101200C4672
:10B56000FFF7E4FEF8B102232370144B186808B10A
:10B57000002010BD01220221FFF744FF08B1072877
:10B58000F7D1072202210120FFF73CFF08B107286D
:10B59000EFD1002108460A22FFF734FF0028E7D048
:10B5A0000728E5D010BDFFF7C1FE10B10B232370B3
:10B5B000DBE72070D9E700BF9437002098370020E0
:10B5C00075DF704776DF70477FDF70478FDF70472A
:10B5D00033DF70470146014802F0ACBC9C370020C5
:10B5E00010B5044682B06249002000F049FD23886E
:10B5F000103B462B00F29E80DFE803F0314E9C5C4E
:10B600009C9C9C9C9C9C9C699C759C7A9C859C9C0D
:10B610009C9C9C9C9C9C9C9C9C9C9C9C9C9C9C9C6A
:10B620009C9C9C9C9C9C9C929C9C9C9C9C9C9C9C64
:10B630009C9C9C9C9C9C9C9C9C9C9C9C9C9C9C9C4A
:10B640009C9C2400A0881321FFF7BCFF002840F039
:10B6500082804849002000F013FD02B010BD002296
:10B66000A188454802F040FD002871D10720FFF76E
:10B6700063FE002869D1A188404801F019FC002828
:10B6800060D10020FDF7F6FC0120FDF7E1FC3C490C
:10B69000002000F0F5FCE0E7237AA2883949002079
:10B6A00001F072F90120FDF7E5FC3749002000F0B8
:10B6B000E7FCD2E70023A0881A468521FFF784FF24
:10B6C00000283CD13149002000F0DAFCC5E7237A9C
:10B6D000022BC2D12E49002001F056F92D4900203D
:10B6E00000F0CEFCB9E72C49002000F0C9FCB4E71B
:10B6F00004F10801A088FFF763FFA8BB27490020D9
:10B7000000F0BEFCA9E70023A088ADF8043001A931
:10B71000FFF75CFF28BB2249002000F0B1FC9CE74A
:10B72000A0881321FFF74EFFC0B91E49002000F08A
:10B73000A7FC92E71C49002000F0A2FC8DE7FCF773
:10B740005DF8BFE7FCF75AF89BE7FCF757F892E77C
:10B75000FCF754F88AE7FCF751F87AE7FCF74EF863
:10B76000E3E7FCF74BF8D6E7FCF748F8C6E700BF7D
:10B7700080040300C80503009C370020A82A00208D
:10B7800094040300AC040300DC0403004805030038
:10B79000F8040300180503003005030068050300E2
:10B7A00090050300B0050300E00503000A8840F699
:10B7B00077239A4200D0704770B50E4B0E4D0F4E56
:10B7C000ED1AED082D0445F003050C4628460C49FA
:10B7D000FBF7BEF8A4880B49033CA4B228462346D5
:10B7E00022463480FBF76CFA07490020BDE8704020
:10B7F00000F046BC880F0300B80F0300A42A002005
:10B80000F40603001407030040070300042808B5EA
:10B810000CD00A2809D10020FFF78EFD90B9FFF760
:10B8200087FEA8B9FFF7D4FE40B908BD0A4B132123
:10B830005888FFF7C7FE30F00803F6D0BDE808408F
:10B84000FBF7DCBFFBF7DAFFFFF772FE0028E9D059
:10B85000FBF7D4FFE6E700BF9C370020104A012326
:10B86000C2F80435D2F80034002BFBD04FF0102082
:10B87000052400230A49C0F80443C2F80435D1F86E
:10B880000034002BFBD0BFF34F8F0649064BCA682C
:10B8900002F4E0621343CB60BFF34F8F00BFFDE7BC
:10B8A00000E0014000ED00E00400FA0538B50C4668
:10B8B00005462C49002000F0E3FB2378012B04D03F
:10B8C00058B258B3022B0AD038BD2749002000F0E7
:10B8D000D7FB26490020BDE8384000F0D1BB244BFF
:10B8E00024482549C01AC008000440F00300FBF7B3
:10B8F0002FF8224802F0C4FE88BB0320FDF7A8FB06
:10B900000120FFF719FD38BB1D49002000F0B8FBEE
:10B910001C490020BDE8384000F0B2BB1A4900F0D5
:10B92000AFFB04F10E026188284602F0DDFB80B90E
:10B93000284602F0B7FB48B91449002000F0A0FBEC
:10B9400013490020BDE8384000F09ABBFBF756FFD2
:10B95000F2E7FBF753FFEBE7FBF750FFD4E7FBF70A
:10B960004DFFCAE7EC050300740603009C060300C4
:10B97000880F0300B80F0300B8060300C03700208B
:10B98000C8060300D80603000806030020060300CB
:10B990005006030010B5044684B03049002000F082
:10B9A0006FFB2378062B0AD0072B35D0042B10D041
:10B9B0002B49002004B0BDE8104000F061BB606876
:10B9C000002848D12749002004B0BDE8104000F00D
:10B9D00057BB0320FDF74EFB234B24482449C01AD4
:10B9E000C008000440F00300FAF7B2FF214802F05B
:10B9F00047FE68BB0320FDF72BFB0120FFF79CFCF3
:10BA000018BB1D49002000F03BFB1C49002004B07E
:10BA1000BDE8104000F034BB0320FDF72BFB60684D
:10BA2000174984798378427803944479029404799D
:10BA30000194C0780090002000F0A6FF114900207A
:10BA400004B0BDE8104000F01BBBFBF7D7FED8E701
:10BA5000FBF7D4FECEE7FBF7D1FEB3E7B807030050
:10BA6000E0050300CC070300880F0300B80F0300B4
:10BA700038080300C0370020C80603004808030048
:10BA8000EC0703001C08030008B51049104802F039
:10BA90004DF950B9F7210E4802F060F968B90D4927
:10BAA0000020BDE8084000F0EBBAFBF7A7FEF72145
:10BAB000074802F053F90028F1D0FBF79FFE054933
:10BAC0000020BDE8084000F0DBBA00BFADB70200BF
:10BAD000AC3700205407030000B54FF0102385B0A9
